:020000040800F2
:1000000000500020A90E0008390E00083F0E00081D
:10001000450E00084B0E0008510E000800000000BD
:10002000000000000000000000000000570E000863
:10003000630E0008000000006F0E00087B0E000831
:10004000F10E0008F10E0008F10E0008F10E000894
:10005000F10E0008F10E0008F10E0008F10E000884
:10006000F10E0008F10E0008F10E0008F10E000874
:10007000F10E0008F10E0008F10E0008F10E000864
:10008000F10E0008F10E0008F10E0008F10E000854
:10009000F10E0008F10E0008F10E0008F10E000844
:1000A000F10E0008F10E0008F10E0008F10E000834
:1000B000890E0008F10E0008F10E0008F10E00088C
:1000C000F10E0008F10E0008F10E0008F10E000814
:1000D000F10E0008F10E0008F10E0008F10E000804
:1000E000F10E0008F10E0008F10E000800000000FB
:1000F0000000000000000000000000000000000000
:0C01000000000000000000005FF808F1A3
:10010C0010B5054C237833B9044B13B10448AFF345
:10011C0000800123237010BD5C0000200000000053
:10012C006C2E000808B5034B1BB103490348AFF311
:10013C00008008BD00000000600000206C2E00084C
:10014C0080B400AF064B1B68012B04D1044B00227A
:10015C001A60012300E000231846BD4680BC70479E
:10016C007800002080B400AF064B1B68012B04D133
:10017C00044B00221A60012300E000231846BD4600
:10018C0080BC70477C00002080B400AF064B1B681D
:10019C00012B04D1044B00221A60012300E0002340
:1001AC001846BD4680BC70478000002080B483B0E8
:1001BC0000AF78607B68002B03D10B4B01221A60D7
:1001CC000CE07B68012B03D1084B01221A6005E07F
:1001DC007B68022B02D1064B01221A6000BF0C3740
:1001EC00BD4680BC704700BF780000207C0000201A
:1001FC008000002080B582B000AF00237B608FE0D0
:10020C004C4A7B6852F823204B497B6841F82320E9
:10021C004A4A7B6852F8232046497B6841F82320E0
:10022C007B68002B0AD10221454801F051F90346A5
:10023C001946424A7B6842F823101AE07B68012B6E
:10024C000AD110213E4801F043F9034619463B4AB6
:10025C007B6842F823100CE07B68022B09D101214A
:10026C00384801F035F903461946344A7B6842F8A0
:10027C002310304A7B6852F8232030497B6851F8B0
:10028C0023309A4249D12B4A7B6852F823202A49C1
:10029C007B6851F823309A423FD1274A7B6852F849
:1002AC00232029497B6851F823309A4217D0224ADF
:1002BC007B6852F8232024497B6841F823201E4A8E
:1002CC007B6852F82330002B27D17868FFF76EFF3C
:1002DC001E4A7B684FF4967142F823101DE01B4AAE
:1002EC007B6852F823305A1E18497B6841F823204A
:1002FC00164A7B6852F82330002B0ED10E4A7B68CD
:10030C0052F82330002B02D17868FFF74FFF0F4AC9
:10031C007B684FF4967142F823107B6801337B6045
:10032C007B68022B7FF76CAF00BF00BF0837BD4660
:10033C0080BD00BF0C000020180000200000002031
:10034C0000080140000C0140240000203000002077
:10035C0080B500AF734B1B68043B042B00F2D980B3
:10036C0001A252F823F000BF89030008CB03000858
:10037C002304000877040008CB0400084FF47A70BB
:10038C0000F0F8FB4FF47A7000F00EFC00224FF4F2
:10039C008061654801F0B3F800220821634801F040
:1003AC00AEF800221021614801F0A9F800222021AA
:1003BC005E4801F0A4F85B4B05221A60B0E0FFF731
:1003CC00BFFE0346012B18D1564B06221A600022A1
:1003DC004FF48061544801F092F8002208215348F0
:1003EC0001F08DF800221021504801F088F800220D
:1003FC0020214E4801F083F892E0FFF7B3FE03464C
:10040C00012B05D14A4B01221A6000F097F987E0C5
:10041C0000F09CF884E0FFF793FE0346012B02D119
:10042C00404B07221A60FFF79DFE0346012B0BD1B0
:10043C00404B1B6801333F4A13603E4B1B68632BD8
:10044C0002DD3C4B00221A60FFF79EFE0346012B97
:10045C0061D1384B1B684FF47A7202FB03F3364AB6
:10046C001360344B00221A6055E0FFF769FE034617
:10047C00012B02D12B4B08221A60FFF773FE0346A7
:10048C00012B0BD12D4B1B6801332C4A13602B4BCA
:10049C001B68632B02DD294B00221A60FFF774FEE8
:1004AC000346012B39D1254B1B684FF47A7202FBA2
:1004BC0003F3234A1360214B00221A602DE0FFF74F
:1004CC003FFE0346012B02D1164B04221A60FFF7A4
:1004DC0049FE0346012B0BD11A4B1B680133194AF9
:1004EC001360184B1B68632B02DD164B00221A603D
:1004FC00FFF74AFE0346012B11D1124B1B684FF438
:10050C007A7202FB03F3104A13600E4B00221A603E
:10051C0005E000BF04E000BF02E000BF00E000BF48
:10052C0000BF80BD3C00002000080140000C0140D1
:10053C008C0000209000002040000020940000203F
:10054C0048000020980000204400002080B500AF37
:10055C00714B1B68032B67D801A252F823F000BF24
:10056C007D050008A5050008D5050008050600084E
:10057C006A4B1B68184600F0FDFA674B03221A60A1
:10058C0000224FF48061664800F0B9FF0122082177
:10059C00644800F0B4FF4EE0634B1B68012B45D15F
:1005AC005E4B1B68184600F0E5FA5B4B03221A60A1
:1005BC0000224FF480615A4800F0A1FF012208216B
:1005CC00584800F09CFF31E0574B1B68012B2FD192
:1005DC00564B1B68184600F0CDFA4F4B01221A609F
:1005EC0001224FF480614E4800F089FF002208215F
:1005FC004C4800F084FF1BE04B4B1B68012B19D1BE
:10060C004B4B1B68184600F0B5FA434B02221A609C
:10061C0001224FF48061424800F071FF0122082151
:10062C00404800F06CFF05E000BF04E000BF02E0B2
:10063C0000BF00E000BF3F4B1B68032B63D801A237
:10064C0052F823F06106000889060008B706000876
:10065C00E5060008354B1B68184600F08BFA354B45
:10066C0001221A6001224FF480612D4800F047FFEF
:10067C00002208212B4800F042FF4BE02E4B1B6858
:10068C00012B42D1254B1B68184600F08DFA294BE3
:10069C0003221A6000221021224800F030FF0122B0
:1006AC002021204800F02BFF2FE0234B1B68012B4F
:1006BC002DD11E4B1B68184600F076FA1D4B0122FB
:1006CC001A6001221021174800F019FF0022202186
:1006DC00144800F014FF1AE0174B1B68012B18D1BB
:1006EC00134B1B68184600F05FFA124B02221A607B
:1006FC00012210210B4800F002FF012220210948A1
:10070C0000F0FDFE05E000BF04E000BF02E000BF0A
:10071C0000E000BF00BF80BD84000020440000202A
:10072C0000080140000C01407C010020400000202A
:10073C0048000020880000208401002080B500AF14
:10074C00FFF722FD0346012B02D1024B00221A6057
:10075C0000BF80BD8C00002080B500AF00F0C4FB52
:10076C0000F02AF800F056F900F068F800F0B2F842
:10077C0000F026F90C4801F05DFB00210B4801F05C
:10078C0003FC4FF47A7000F0DBF9094B1B68012B6A
:10079C0007D14FF47A7000F0D3F92021054800F00E
:1007AC00C6FEFFF7D5FDF0E79C000020E40000201A
:1007BC00740100200008014080B590B000AF07F133
:1007CC00180328220021184602F042FB3B1D002290
:1007DC001A605A609A60DA601A610223BB610123C5
:1007EC00BB621023FB6202237B630023BB634FF4C9
:1007FC006013FB6307F11803184600F0B1FE0346C3
:10080C00002B01D000F096F90F237B600223BB6014
:10081C000023FB604FF480633B6100237B613B1D35
:10082C000221184601F01EF90346002B01D000F0FE
:10083C0081F900BF4037BD4680BD000080B586B051
:10084C0000AF07F1080300221A605A609A60DA6060
:10085C003B4600221A605A601D4B4FF080421A60D2
:10086C001B4B47F6FF425A60194B00229A60184BFB
:10087C001322DA60164B00221A61154B00229A6182
:10088C00134801F087FA0346002B01D000F052F90F
:10089C004FF48053BB6007F1080319460C4801F074
:1008AC00DBFD0346002B01D000F044F900233B6034
:1008BC0000237B603B461946054802F059F9034674
:1008CC00002B01D000F036F900BF1837BD4680BDB3
:1008DC009C00002080B58EB000AF07F128030022E9
:1008EC001A605A609A60DA6007F1200300221A60DD
:1008FC005A603B1D00221A605A609A60DA601A61D5
:10090C005A619A612C4B2D4A1A602B4B3F225A602C
:10091C00294B00229A60284B40F2E732DA60264BD2
:10092C0000221A61244B00229A61234801F032FA0A
:10093C000346002B01D000F0FDF84FF48053BB624E
:10094C0007F1280319461C4801F086FD0346002BCD
:10095C0001D000F0EFF8184801F0BEFA0346002B66
:10096C0001D000F0E7F800233B6200237B6207F123
:10097C0020031946104802F0FBF80346002B01D067
:10098C0000F0D8F860237B600023BB600023FB6081
:10099C0000237B613B1D00221946074801F09EFC99
:1009AC000346002B01D000F0C5F8034800F0C2F953
:1009BC0000BF3837BD4680BDE40000200004004075
:1009CC0080B500AF114B124A1A60104B4FF41652FF
:1009DC005A600E4B00229A600C4B0022DA600B4BD3
:1009EC0000221A61094B0C225A61084B00229A61B1
:1009FC00064B0022DA61054802F02AF90346002B67
:100A0C0001D000F097F800BF80BD00BF2C01002082
:100A1C000044004080B588B000AF07F110030022FD
:100A2C001A605A609A60DA60394B9B69384A43F015
:100A3C0010039361364B9B6903F01003FB60FB685A
:100A4C00334B9B69324A43F020039361304B9B69D3
:100A5C0003F02003BB60BB682D4B9B692C4A43F011
:100A6C00040393612A4B9B6903F004037B607B684E
:100A7C00274B9B69264A43F008039361244B9B69DF
:100A8C0003F008033B603B6800224FF4846121486B
:100A9C0000F035FD002238211F4800F030FD1223F4
:100AAC003B6100237B610123BB6107F110031946F5
:100ABC00184800F089FB4FF484633B6101237B6190
:100ACC000023BB610223FB6107F110031946114897
:100ADC0000F07AFB01233B6100237B610123BB61A6
:100AEC0007F1100319460C4800F06EFB38233B61EC
:100AFC0001237B610023BB610223FB6107F110031F
:100B0C001946054800F060FB00BF2037BD4680BD8C
:100B1C000010024000080140000C014080B582B07A
:100B2C0000AF786000F05AF8FFF764FB00BF08379D
:100B3C00BD4680BD80B400AF72B600BFFEE70000BA
:100B4C0080B483B000AF7860074B1B687A6892FB67
:100B5C00F3F3064A1360064B00221A6000BF0C37F1
:100B6C00BD4680BC704700BF4C00002070010020C7
:100B7C007401002080B483B000AF7860074B1B6811
:100B8C007A6892FBF3F3064A1360064B00221A6054
:100B9C0000BF0C37BD4680BC704700BF4C00002026
:100BAC00780100207C01002080B483B000AF786015
:100BBC00074B1B687A6892FBF3F3064A1360064BEB
:100BCC0000221A6000BF0C37BD4680BC704700BFC6
:100BDC004C000020800100208401002080B400AF74
:100BEC00194B1B68002B0BDD174B1B68013B164A7E
:100BFC001360154B1B68002B02D1144B01221A6099
:100C0C00134B1B68002B0BDD114B1B68013B104A6F
:100C1C0013600F4B1B68002B02D10E4B01221A6084
:100C2C000D4B1B68002B0BDD0B4B1B68013B0A4A61
:100C3C001360094B1B68002B02D1084B01221A6070
:100C4C0000BFBD4680BC70477001002074010020BD
:100C5C00780100207C01002080010020840100200C
:100C6C0080B485B000AF154B9B69144A43F0010367
:100C7C009361124B9B6903F00103BB60BB680F4B84
:100C8C00DB690E4A43F08053D3610C4BDB6903F0F4
:100C9C0080537B607B680A4B5B68FB60FB6823F0CE
:100CAC00E063FB60FB6843F00073FB60044AFB6885
:100CBC00536000BF1437BD4680BC70470010024023
:100CCC000000014080B584B000AF78607B681B6881
:100CDC00B3F1804F14D1154BDB69144A43F0010377
:100CEC00D361124BDB6903F00103FB60FB6800224C
:100CFC0000211C2000F031FA1C2000F04AFA10E010
:100D0C007B681B680A4A93420BD1084BDB69074A84
:100D1C0043F00203D361054BDB6903F00203BB60B4
:100D2C00BB6800BF1037BD4680BD00BF001002403D
:100D3C000004004080B588B000AF786007F1100364
:100D4C0000221A605A609A60DA607B681B680F4A4E
:100D5C00934217D10E4B9B690D4A43F004039361E8
:100D6C000B4B9B6903F00403FB60FB6840233B6166
:100D7C0002237B610223FB6107F11003194605482E
:100D8C0000F022FA00BF2037BD4680BD00040040B1
:100D9C00001002400008014080B588B000AF7860B8
:100DAC0007F1100300221A605A609A60DA607B68BF
:100DBC001B681B4A93422FD11A4BDB69194A43F427
:100DCC000033D361174BDB6903F40033FB60FB6822
:100DDC00144B9B69134A43F004039361114B9B69B9
:100DEC0003F00403BB60BB6804233B6102237B61FB
:100DFC000323FB6107F1100319460B4800F0E4F9DB
:100E0C0008233B6100237B610023BB6107F11003C6
:100E1C001946054800F0D8F900BF2037BD4680BD03
:100E2C0000440040001002400008014080B400AFB4
:100E3C00FEE780B400AFFEE780B400AFFEE780B4FD
:100E4C0000AFFEE780B400AFFEE780B400AF00BF98
:100E5C00BD4680BC704780B400AF00BFBD4680BCAF
:100E6C00704780B400AF00BFBD4680BC704780B5F2
:100E7C0000AF00F07FF800BF80BD000080B500AF70
:100E8C00024801F023F900BF80BD00BF9C00002088
:100E9C0080B400AF00BFBD4680BC70470C480D4904
:100EAC000D4A002302E0D458C4500433C4188C42B9
:100EBC00F9D30A4A0A4C002301E013600432A2421F
:100ECC00FBD3FFF7E5FF01F09FFFFFF745FC7047F1
:100EDC00000000205C000020B42E00085C00002004
:100EEC008C010020FEE7000080B500AF084B1B68AA
:100EFC00074A43F010031360032000F023F90F207E
:100F0C0000F008F8FFF7ACFE0023184680BD00BFC8
:100F1C000020024080B582B000AF7860124B1A6896
:100F2C00124B1B7819464FF47A73B3FBF1F3B2FBF7
:100F3C00F3F3184600F03BF90346002B01D00123D4
:100F4C000EE07B680F2B0AD8002279684FF0FF3037
:100F5C0000F003F9064A7B681360002300E00123CC
:100F6C0018460837BD4680BD5000002058000020B0
:100F7C005400002080B400AF054B1B781A46054B7B
:100F8C001B681344034A136000BFBD4680BC704706
:100F9C00580000208801002080B400AF024B1B6871
:100FAC001846BD4680BC70478801002080B485B0CF
:100FBC0000AF78607B6803F00703FB600C4BDB68C9
:100FCC00BB60BA684FF6FF031340BB60FB681A02A4
:100FDC00BB68134343F0BF6343F40033BB60044A64
:100FEC00BB68D36000BF1437BD4680BC704700BFE0
:100FFC0000ED00E080B400AF044BDB681B0A03F08B
:10100C0007031846BD4680BC704700BF00ED00E0EA
:10101C0080B483B000AF0346FB7197F90730002B07
:10102C000BDBFB7903F01F02064997F907305B09CC
:10103C00012000FA02F241F8232000BF0C37BD4614
:10104C0080BC704700E100E080B483B000AF034681
:10105C003960FB7197F90730002B0ADB3B68DAB279
:10106C000C4997F907301201D2B20B4483F80023D4
:10107C000AE03B68DAB20849FB7903F00F03043B42
:10108C001201D2B20B441A7600BF0C37BD4680BC9D
:10109C00704700BF00E100E000ED00E080B489B0D3
:1010AC0000AFF860B9607A60FB6803F00703FB617E
:1010BC00FB69C3F10703042B28BF0423BB61FB6945
:1010CC000433062B02D9FB69033B00E000237B6150
:1010DC004FF0FF32BB6902FA03F3DA43BB681A40E4
:1010EC007B699A404FF0FF317B6901FA03F3D943D6
:1010FC007B680B40134318462437BD4680BC7047B1
:10110C0080B582B000AF78607B68013BB3F1807F23
:10111C0001D301230FE00A4A7B68013B53600F2186
:10112C004FF0FF30FFF790FF054B00229A60044B05
:10113C0007221A60002318460837BD4680BD00BF41
:10114C0010E000E080B582B000AF78607868FFF7FF
:10115C002DFF00BF0837BD4680BD80B586B000AFFF
:10116C000346B9607A60FB7300237B61FFF742FF93
:10117C0078617A68B9687869FFF790FF024697F949
:10118C000F3011461846FFF75FFF00BF1837BD46FA
:10119C0080BD80B582B000AF0346FB7197F9073074
:1011AC001846FFF735FF00BF0837BD4680BD80B538
:1011BC0082B000AF78607868FFF7A2FF034618464C
:1011CC000837BD4680BD000080B48BB000AF78609E
:1011DC00396000237B6200233B6269E101227B6A58
:1011EC0002FA03F3FB613B681B68FA691340BB61AD
:1011FC00BA69FB699A4240F058813B685B689A4A2D
:10120C0093425ED0984A934275D8984A934258D0EC
:10121C00964A93426FD8964A934252D0944A93423C
:10122C0069D8944A93424CD0924A934263D8924ADA
:10123C00934246D0904A93425DD8122B2AD8122B57
:10124C0059D801A252F823F0CF120008A9120008B5
:10125C00BB120008FD12000803130008031300085A
:10126C0003130008031300080313000803130008FA
:10127C0003130008031300080313000803130008EA
:10128C00031300080313000803130008B11200082D
:10129C00C5120008794A934213D02CE03B68DB68F6
:1012AC003B6229E03B68DB6804333B6224E03B682B
:1012BC00DB6808333B621FE03B68DB680C333B6246
:1012CC001AE03B689B68002B02D104233B6213E0BD
:1012DC003B689B68012B05D108233B627B68FA694C
:1012EC001A6109E008233B627B68FA695A6103E0E2
:1012FC0000233B6200E000BFBB69FF2B01D87B6879
:10130C0001E07B6804337B61BB69FF2B02D87B6AED
:10131C009B0002E07B6A083B9B003B617B691A687F
:10132C000F213B6901FA03F3DB431A40396A3B692D
:10133C0001FA03F31A437B691A603B685B6803F09C
:10134C008053002B00F0B1804D4B9B694C4A43F00D
:10135C00010393614A4B9B6903F00103BB60BB68BB
:10136C00484A7B6A9B08023352F82330FB607B6A45
:10137C0003F003039B000F2202FA03F3DB43FA682A
:10138C001340FB607B68404A934213D07B683F4A12
:10139C0093420DD07B683E4A934207D07B683D4A0E
:1013AC00934201D1032306E0042304E0022302E06C
:1013BC00012300E000237A6A02F0030292009340BA
:1013CC00FA681343FB602F497B6A9B080233FA6867
:1013DC0041F823203B685B6803F48033002B06D074
:1013EC002D4B1A682C49BB6913430B6006E02A4B42
:1013FC001A68BB69DB43284913400B603B685B6888
:10140C0003F40033002B06D0234B5A682249BB69E6
:10141C0013434B6006E0204B5A68BB69DB431E4903
:10142C0013404B603B685B6803F48013002B06D0C1
:10143C00194B9A681849BB6913438B6006E0164B2D
:10144C009A68BB69DB43144913408B603B685B684B
:10145C0003F40013002B21D00F4BDA680E49BB6943
:10146C001343CB6021E000BF0000321000003110AC
:10147C0000002210000021100000121000001110BA
:10148C00001002400000014000080140000C014027
:10149C000010014000140140000401400B4BDA68BD
:1014AC00BB69DB4309491340CB607B6A01337B6228
:1014BC003B681A687B6A22FA03F3002B7FF48EAE2A
:1014CC0000BF00BF2C37BD4680BC704700040140F4
:1014DC0080B485B000AF78600B467B807B689A68DF
:1014EC007B881340002B02D00123FB7301E0002307
:1014FC00FB73FB7B18461437BD4680BC704780B429
:10150C0083B000AF78600B467B8013467B707B7892
:10151C00002B03D07A887B681A6103E07B881A045D
:10152C007B681A6100BF0C37BD4680BC704780B425
:10153C0085B000AF78600B467B807B68DB68FB6016
:10154C007A88FB6813401A04FB68D9437B880B40EC
:10155C001A437B681A6100BF1437BD4680BC7047C4
:10156C0080B586B000AF78607B68002B01D1012379
:10157C0072E27B681B6803F00103002B00F087808C
:10158C00924B5B6803F00C03042B0CD08F4B5B6805
:10159C0003F00C03082B12D18C4B5B6803F48033E3
:1015AC00B3F5803F0BD1894B1B6803F40033002B40
:1015BC006CD07B685B68002B68D101234CE27B68A4
:1015CC005B68B3F5803F06D1804B1B687F4A43F4C0
:1015DC00803313602EE07B685B68002B0CD17B4B57
:1015EC001B687A4A23F480331360784B1B68774A64
:1015FC0023F4802313601DE07B685B68B3F5A02F98
:10160C000CD1724B1B68714A43F4802313606F4BEF
:10161C001B686E4A43F4803313600BE06B4B1B6802
:10162C006A4A23F480331360684B1B68674A23F4BF
:10163C00802313607B685B68002B13D0FFF7ACFC36
:10164C00386108E0FFF7A8FC02463B69D31A642B0B
:10165C0001D9032300E25D4B1B6803F40033002B1C
:10166C00F0D014E0FFF798FC386108E0FFF794FC29
:10167C0002463B69D31A642B01D90323ECE1534B8B
:10168C001B6803F40033002BF0D100E000BF7B6833
:10169C001B6803F00203002B63D04C4B5B6803F018
:1016AC000C03002B0BD0494B5B6803F00C03082B8D
:1016BC001CD1464B5B6803F48033002B16D1434B93
:1016CC001B6803F00203002B05D07B681B69012B00
:1016DC0001D00123C0E13D4B1B6823F0F8027B686D
:1016EC005B69DB00394913430B603AE07B681B698B
:1016FC00002B20D0364B01221A60FFF74DFC3861CD
:10170C0008E0FFF749FC02463B69D31A022B01D9CA
:10171C000323A1E12D4B1B6803F00203002BF0D037
:10172C002A4B1B6823F0F8027B685B69DB002749B6
:10173C0013430B6015E0264B00221A60FFF72CFCBC
:10174C00386108E0FFF728FC02463B69D31A022BEC
:10175C0001D9032380E11D4B1B6803F00203002B0E
:10176C00F0D17B681B6803F00803002B3AD07B6830
:10177C009B69002B19D0174B01221A60FFF70CFC48
:10178C00386108E0FFF708FC02463B69D31A022BCC
:10179C0001D9032360E10D4B5B6A03F00203002BBC
:1017AC00F0D0012000F0D8FA1CE00A4B00221A609D
:1017BC00FFF7F2FB38610FE0FFF7EEFB02463B69E7
:1017CC00D31A022B08D9032346E100BF00100240B4
:1017DC000000424280044242924B5B6A03F00203D7
:1017EC00002BE9D17B681B6803F00403002B00F08D
:1017FC00A6800023FB758B4BDB6903F08053002B19
:10180C000DD1884BDB69874A43F08053D361854BFC
:10181C00DB6903F08053BB60BB680123FB75824B13
:10182C001B6803F48073002B18D17F4B1B687E4A16
:10183C0043F480731360FFF7AFFB386108E0FFF7E8
:10184C00ABFB02463B69D31A642B01D9032303E19A
:10185C00754B1B6803F48073002BF0D07B68DB683E
:10186C00012B06D16F4B1B6A6E4A43F001031362C6
:10187C002DE07B68DB68002B0CD16A4B1B6A694A34
:10188C0023F001031362674B1B6A664A23F00403BF
:10189C0013621CE07B68DB68052B0CD1614B1B6A67
:1018AC00604A43F0040313625E4B1B6A5D4A43F0CB
:1018BC00010313620BE05B4B1B6A5A4A23F00103D2
:1018CC001362584B1B6A574A23F0040313627B685C
:1018DC00DB68002B15D0FFF75FFB38610AE0FFF7E0
:1018EC005BFB02463B69D31A41F28832934201D921
:1018FC000323B1E04B4B1B6A03F00203002BEED029
:10190C0014E0FFF749FB38610AE0FFF745FB02469C
:10191C003B69D31A41F28832934201D903239BE0ED
:10192C00404B1B6A03F00203002BEED1FB7D012B15
:10193C0005D13C4BDB693B4A23F08053D3617B6878
:10194C00DB69002B00F08780364B5B6803F00C03DF
:10195C00082B61D07B68DB69022B46D1334B00220C
:10196C001A60FFF719FB386108E0FFF715FB024618
:10197C003B69D31A022B01D903236DE0294B1B6859
:10198C0003F00073002BF0D17B681B6AB3F5803F2A
:10199C0008D1244B5B6823F400327B689B68214997
:1019AC0013434B601F4B5B6823F474127B68196AFA
:1019BC007B685B6A0B431B4913434B601B4B012237
:1019CC001A60FFF7E9FA386108E0FFF7E5FA02461A
:1019DC003B69D31A022B01D903233DE0114B1B6841
:1019EC0003F00073002BF0D035E0104B00221A608E
:1019FC00FFF7D2FA386108E0FFF7CEFA02463B69EE
:101A0C00D31A022B01D9032326E0064B1B6803F0E3
:101A1C000073002BF0D11EE07B68DB69012B07D132
:101A2C00012319E0001002400070004060004242A7
:101A3C000B4B5B68FB60FB6803F480327B681B6AB2
:101A4C009A4206D1FB6803F470127B685B6A9A4277
:101A5C0001D0012300E0002318461837BD4680BD95
:101A6C000010024080B584B000AF786039607B68AC
:101A7C00002B01D10123D0E06A4B1B6803F0070354
:101A8C003A689A4210D9674B1B6823F007026549E4
:101A9C003B6813430B60634B1B6803F007033A6806
:101AAC009A4201D00123B8E07B681B6803F0020363
:101ABC00002B20D07B681B6803F00403002B05D09F
:101ACC00594B5B68584A43F4E06353607B681B686E
:101ADC0003F00803002B05D0534B5B68524A43F4C8
:101AEC0060535360504B5B6823F0F0027B689B683B
:101AFC004D4913434B607B681B6803F00103002BBB
:101B0C0040D07B685B68012B07D1474B1B6803F403
:101B1C000033002B15D101237FE07B685B68022B1F
:101B2C0007D1414B1B6803F00073002B09D1012333
:101B3C0073E03D4B1B6803F00203002B01D1012322
:101B4C006BE0394B5B6823F003027B685B683649BA
:101B5C0013434B60FFF720FAF8600AE0FFF71CFA1A
:101B6C000246FB68D31A41F28832934201D903230F
:101B7C0053E02D4B5B6803F00C027B685B689B00A9
:101B8C009A42EBD1274B1B6803F007033A689A4241
:101B9C0010D2244B1B6823F0070222493B681343E5
:101BAC000B60204B1B6803F007033A689A4201D084
:101BBC00012332E07B681B6803F00403002B08D080
:101BCC00194B5B6823F4E0627B68DB6816491343AE
:101BDC004B607B681B6803F00803002B09D0124B89
:101BEC005B6823F460527B681B69DB000E4913436E
:101BFC004B6000F021F802460B4B5B681B0903F0AD
:101C0C000F030A49CB5C22FA03F3094A1360094B10
:101C1C001B681846FFF77EF9002318461037BD469F
:101C2C0080BD00BF0020024000100240942E00082E
:101C3C00500000205400002090B48AB000AF294B13
:101C4C003C1D0FCB84E80F0040F201233B800023A6
:101C5C00FB610023BB6100237B6200237B610023BB
:101C6C003B62214B5B68FB61FB6903F00C03042BAB
:101C7C0002D0082B03D02BE01C4B3B622BE0FB6902
:101C8C009B0C03F00F0328333B4413F8243C7B617B
:101C9C00FB6903F48033002B12D0134B5B685B0C95
:101CAC0003F0010328333B4413F8283CBB617B69E8
:101CBC000E4A03FB02F2BB69B2FBF3F37B6204E056
:101CCC007B690B4A02FB03F37B627B6A3B6202E09B
:101CDC00064B3B6200BF3B6A18462837BD4690BC9A
:101CEC00704700BF842E00080010024000127A00DA
:101CFC0000093D0080B400AF024B1B681846BD467E
:101D0C0080BC70475000002080B500AFFFF7F2FF99
:101D1C000246054B5B681B0A03F007030349CB5CC7
:101D2C0022FA03F3184680BD00100240A42E0008CE
:101D3C0080B500AFFFF7DEFF0246054B5B68DB0AA0
:101D4C0003F007030349CB5C22FA03F3184680BD6A
:101D5C0000100240A42E000880B485B000AF78605B
:101D6C000A4B1B680A4AA2FB03235B0A7A6802FB34
:101D7C0003F3FB6000BFFB685A1EFA60002BF9D11D
:101D8C0000BF00BF1437BD4680BC70475000002018
:101D9C00D34D621080B582B000AF78607B68002BA9
:101DAC0001D1012341E07B6893F83D30DBB2002B7D
:101DBC0006D17B68002283F83C207868FEF782FF0E
:101DCC007B68022283F83D207B681A687B680433A9
:101DDC001946104600F028FC7B68012283F8462047
:101DEC007B68012283F83E207B68012283F83F2028
:101DFC007B68012283F840207B68012283F8412014
:101E0C007B68012283F842207B68012283F84320FF
:101E1C007B68012283F844207B68012283F84520EB
:101E2C007B68012283F83D20002318460837BD4605
:101E3C0080BD000080B485B000AF78607B6893F8FB
:101E4C003D30DBB2012B01D001233AE07B6802224A
:101E5C0083F83D207B681B68DA687B681B6842F05E
:101E6C000102DA607B681B68184A93420ED07B68CB
:101E7C001B68B3F1804F09D07B681B68144A9342EE
:101E8C0004D07B681B68134A934211D17B681B6892
:101E9C009B6803F00703FB60FB68062B10D07B6884
:101EAC001B681A687B681B6842F001021A6007E025
:101EBC007B681B681A687B681B6842F001021A6019
:101ECC00002318461437BD4680BC7047002C0140D7
:101EDC00000400400008004080B582B000AF78607C
:101EEC007B68002B01D1012341E07B6893F83D30E6
:101EFC00DBB2002B06D17B68002283F83C2078688B
:101F0C0000F039F87B68022283F83D207B681A6860
:101F1C007B6804331946104600F086FB7B6801226F
:101F2C0083F846207B68012283F83E207B680122DF
:101F3C0083F83F207B68012283F840207B680122D4
:101F4C0083F841207B68012283F842207B680122C0
:101F5C0083F843207B68012283F844207B680122AC
:101F6C0083F845207B68012283F83D200023184626
:101F7C000837BD4680BD80B483B000AF786000BF29
:101F8C000C37BD4680BC704780B584B000AF78601C
:101F9C0039603B68002B09D17B6893F83E30DBB28B
:101FAC00012B14BF01230023DBB222E03B68042B7E
:101FBC0009D17B6893F83F30DBB2012B14BF0123AE
:101FCC000023DBB215E03B68082B09D17B6893F842
:101FDC004030DBB2012B14BF01230023DBB208E03D
:101FEC007B6893F84130DBB2012B14BF0123002333
:101FFC00DBB2002B01D001235EE03B68002B04D147
:10200C007B68022283F83E2013E03B68042B04D14A
:10201C007B68022283F83F200BE03B68082B04D13D
:10202C007B68022283F8402003E07B68022283F85D
:10203C0041207B681B6801223968184600F074FD4A
:10204C007B681B681E4A934207D17B681B685A6CDD
:10205C007B681B6842F400425A647B681B68184A10
:10206C0093420ED07B681B68B3F1804F09D07B681C
:10207C001B68144A934204D07B681B68124A934233
:10208C0011D17B681B689B6803F00703FB60FB683E
:10209C00062B10D07B681B681A687B681B6842F0A3
:1020AC0001021A6007E07B681B681A687B681B6872
:1020BC0042F001021A60002318461037BD4680BD5D
:1020CC00002C0140000400400008004080B582B0A4
:1020DC0000AF78607B681B681B6903F00203022B5E
:1020EC0022D17B681B68DB6803F00203022B1BD137
:1020FC007B681B686FF002021A617B6801221A77F9
:10210C007B681B689B6903F00303002B03D0786882
:10211C0000F06FFA05E0786800F062FA786800F079
:10212C0071FA7B6800221A777B681B681B6903F0C5
:10213C000403042B22D17B681B68DB6803F00403C7
:10214C00042B1BD17B681B686FF004021A617B683F
:10215C0002221A777B681B689B6903F44073002B7F
:10216C0003D0786800F045FA05E0786800F038FA9A
:10217C00786800F047FA7B6800221A777B681B6846
:10218C001B6903F00803082B22D17B681B68DB68F2
:10219C0003F00803082B1BD17B681B686FF0080247
:1021AC001A617B6804221A777B681B68DB6903F071
:1021BC000303002B03D0786800F01BFA05E0786865
:1021CC0000F00EFA786800F01DFA7B6800221A778E
:1021DC007B681B681B6903F01003102B22D17B68F2
:1021EC001B68DB6803F01003102B1BD17B681B688A
:1021FC006FF010021A617B6808221A777B681B68E3
:10220C00DB6903F44073002B03D0786800F0F1F91C
:10221C0005E0786800F0E4F9786800F0F3F97B6881
:10222C0000221A777B681B681B6903F00103012BE2
:10223C000ED17B681B68DB6803F00103012B07D10F
:10224C007B681B686FF001021A617868FEF766FC08
:10225C007B681B681B6903F08003802B0ED17B68A5
:10226C001B68DB6803F08003802B07D17B681B683D
:10227C006FF080021A61786800F0E1FC7B681B68E3
:10228C001B6903F04003402B0ED17B681B68DB6895
:10229C0003F04003402B07D17B681B686FF04002B2
:1022AC001A61786800F0B7F97B681B681B6903F04A
:1022BC002003202B0ED17B681B68DB6803F0200306
:1022CC00202B07D17B681B686FF020021A6178689D
:1022DC0000F0ACFC00BF0837BD4680BD80B584B0B3
:1022EC0000AFF860B9607A60FB6893F83C30012B62
:1022FC0001D10223ACE0FB68012283F83C207B680F
:10230C000C2B00F29F8001A252F823F04D23000801
:10231C005124000851240008512400088D23000882
:10232C00512400085124000851240008CF23000830
:10233C005124000851240008512400080F240008DF
:10234C00FB681B68B968184600F0D0F9FB681B687D
:10235C009A69FB681B6842F008029A61FB681B686B
:10236C009A69FB681B6822F004029A61FB681B687F
:10237C009969BB681A69FB681B680A439A6162E039
:10238C00FB681B68B968184600F016FAFB681B68F6
:10239C009A69FB681B6842F400629A61FB681B68CF
:1023AC009A69FB681B6822F480629A61FB681B685F
:1023BC009969BB681B691A02FB681B680A439A611E
:1023CC0041E0FB681B68B968184600F05FFAFB68CF
:1023DC001B68DA69FB681B6842F00802DA61FB686B
:1023EC001B68DA69FB681B6822F00402DA61FB687F
:1023FC001B68D969BB681A69FB681B680A43DA61F8
:10240C0021E0FB681B68B968184600F0A9FAFB6864
:10241C001B68DA69FB681B6842F40062DA61FB68CE
:10242C001B68DA69FB681B6822F48062DA61FB685E
:10243C001B68D969BB681B691A02FB681B680A43D5
:10244C00DA6100E000BFFB68002283F83C20002327
:10245C0018461037BD4680BD80B584B000AF78609B
:10246C0039607B6893F83C30012B01D10223B3E037
:10247C007B68012283F83C207B68022283F83D2094
:10248C007B681B689B68FB60FB6823F07703FB6031
:10249C00FB6823F47F43FB607B681B68FA689A60D7
:1024AC003B681B68B3F5005F3ED0B3F5005F00F2EC
:1024BC008780B3F5805F00F08580B3F5805F7FD8AF
:1024CC00702B1AD0702B7BD8602B50D0602B77D808
:1024DC00502B3CD0502B73D8402B58D0402B6FD85E
:1024EC00302B64D0302B6BD8202B60D0202B67D8AE
:1024FC00002B5CD0102B5AD062E07B6818683B68CC
:10250C0099683B685A683B68DB6800F0EEFA7B68B8
:10251C001B689B68FB60FB6843F07703FB607B6880
:10252C001B68FA689A604EE07B6818683B6899688B
:10253C003B685A683B68DB6800F0D7FA7B681B681D
:10254C009A687B681B6842F480429A603BE07B6827
:10255C0018683B6859683B68DB681A4600F04EFA0D
:10256C007B681B685021184600F0A5FA2BE07B68AD
:10257C0018683B6859683B68DB681A4600F06CFACF
:10258C007B681B686021184600F095FA1BE07B689D
:10259C0018683B6859683B68DB681A4600F02EFAED
:1025AC007B681B684021184600F085FA0BE07B68BD
:1025BC001A683B681B681946104600F07CFA02E06A
:1025CC0000BF00E000BF7B68012283F83D207B68E0
:1025DC00002283F83C20002318461037BD4680BDEE
:1025EC0080B483B000AF786000BF0C37BD4680BCB0
:1025FC00704780B483B000AF786000BF0C37BD4625
:10260C0080BC704780B483B000AF786000BF0C37DB
:10261C00BD4680BC704780B483B000AF786000BF0B
:10262C000C37BD4680BC704780B485B000AF786075
:10263C0039607B681B68FB607B68294A93420BD02E
:10264C007B68B3F1804F07D07B68264A934203D056
:10265C007B68254A934208D1FB6823F07003FB602A
:10266C003B685B68FA681343FB607B681C4A9342C7
:10267C000BD07B68B3F1804F07D07B68194A93422B
:10268C0003D07B68184A934208D1FB6823F440734B
:10269C00FB603B68DB68FA681343FB60FB6823F064
:1026AC0080023B685B691343FB607B68FA681A60C5
:1026BC003B689A687B68DA623B681A687B689A6246
:1026CC007B68074A934203D13B681A697B681A639B
:1026DC007B6801225A6100BF1437BD4680BC70472D
:1026EC00002C0140000400400008004080B487B07A
:1026FC0000AF786039607B681B6A23F001027B684D
:10270C001A627B681B6A7B617B685B683B617B68D8
:10271C009B69FB60FB6823F07003FB60FB6823F094
:10272C000303FB603B681B68FA681343FB607B691F
:10273C0023F002037B613B689B687A6913437B61DE
:10274C007B681C4A93420CD17B6923F008037B61A4
:10275C003B68DB687A6913437B617B6923F0040374
:10276C007B617B68134A934211D13B6923F48073DC
:10277C003B613B6923F400733B613B685B693A69DD
:10278C0013433B613B689B693A6913433B617B682C
:10279C003A695A607B68FA689A613B685A687B6848
:1027AC005A637B687A691A6200BF1C37BD4680BCCD
:1027BC00704700BF002C014080B487B000AF786038
:1027CC0039607B681B6A23F010027B681A627B6895
:1027DC001B6A7B617B685B683B617B689B69FB6008
:1027EC00FB6823F4E043FB60FB6823F44073FB605D
:1027FC003B681B681B02FA681343FB607B6923F080
:10280C0020037B613B689B681B017A6913437B61E6
:10281C007B681D4A93420DD17B6923F080037B6159
:10282C003B68DB681B017A6913437B617B6923F08E
:10283C0040037B617B68144A934213D13B6923F4B8
:10284C0080633B613B6923F400633B613B685B69DC
:10285C009B003A6913433B613B689B699B003A6957
:10286C0013433B617B683A695A607B68FA689A61EA
:10287C003B685A687B689A637B687A691A6200BF06
:10288C001C37BD4680BC7047002C014080B487B01B
:10289C0000AF786039607B681B6A23F480727B68B8
:1028AC001A627B681B6A7B617B685B683B617B6837
:1028BC00DB69FB60FB6823F07003FB60FB6823F0B3
:1028CC000303FB603B681B68FA681343FB607B697E
:1028DC0023F400737B613B689B681B027A6913438A
:1028EC007B617B681D4A93420DD17B6923F40063A5
:1028FC007B613B68DB681B027A6913437B617B69F4
:10290C0023F480637B617B68144A934213D13B6947
:10291C0023F480533B613B6923F400533B613B68D8
:10292C005B691B013A6913433B613B689B691B0163
:10293C003A6913433B617B683A695A607B68FA6871
:10294C00DA613B685A687B68DA637B687A691A6279
:10295C0000BF1C37BD4680BC704700BF002C014037
:10296C0080B487B000AF786039607B681B6A23F451
:10297C0080527B681A627B681B6A3B617B685B6870
:10298C007B617B68DB69FB60FB6823F4E043FB60E5
:10299C00FB6823F44073FB603B681B681B02FA68FE
:1029AC001343FB603B6923F400533B613B689B681A
:1029BC001B033A6913433B617B680F4A934209D16D
:1029CC007B6923F480437B613B685B699B017A697B
:1029DC0013437B617B687A695A607B68FA68DA61B9
:1029EC003B685A687B681A647B683A691A6200BF54
:1029FC001C37BD4680BC7047002C014080B487B0AA
:102A0C0000AFF860B9607A60FB681B6A7B61FB6899
:102A1C001B6A23F00102FB681A62FB689B693B612D
:102A2C003B6923F0F0033B617B681B013A6913435C
:102A3C003B617B6923F00A037B617A69BB681343B2
:102A4C007B61FB683A699A61FB687A691A6200BF1C
:102A5C001C37BD4680BC704780B487B000AFF860AF
:102A6C00B9607A60FB681B6A23F01002FB681A627B
:102A7C00FB689B697B61FB681B6A3B617B6923F488
:102A8C0070437B617B681B037A6913437B613B69F1
:102A9C0023F0A0033B61BB681B013A6913433B6104
:102AAC00FB687A699A61FB683A691A6200BF1C3745
:102ABC00BD4680BC704780B485B000AF786039608B
:102ACC007B689B68FB60FB6823F07003FB603A68D3
:102ADC00FB68134343F00703FB607B68FA689A605A
:102AEC0000BF1437BD4680BC704780B487B000AFC0
:102AFC00F860B9607A603B60FB689B687B617B69BE
:102B0C0023F47F437B613B681A027B681A43BB68E2
:102B1C0013437A6913437B61FB687A699A6000BF3F
:102B2C001C37BD4680BC704780B487B000AFF860DE
:102B3C00B9607A60BB6803F01F03012202FA03F349
:102B4C007B61FB681A6A7B69DB431A40FB681A627B
:102B5C00FB681A6ABB6803F01F03796801FA03F378
:102B6C001A43FB681A6200BF1C37BD4680BC704715
:102B7C0080B485B000AF786039607B6893F83C30E6
:102B8C00012B01D1022346E07B68012283F83C2013
:102B9C007B68022283F83D207B681B685B68FB60C6
:102BAC007B681B689B68BB60FB6823F07003FB6051
:102BBC003B681B68FA681343FB607B681B68FA6808
:102BCC005A607B681B68164A93420ED07B681B6860
:102BDC00B3F1804F09D07B681B68124A934204D032
:102BEC007B681B68104A93420CD1BB6823F08003AE
:102BFC00BB603B685B68BA681343BB607B681B684F
:102C0C00BA689A607B68012283F83D207B680022B9
:102C1C0083F83C20002318461437BD4680BC70470F
:102C2C00002C0140000400400008004080B483B038
:102C3C0000AF786000BF0C37BD4680BC704780B4D5
:102C4C0083B000AF786000BF0C37BD4680BC7047C6
:102C5C0080B582B000AF78607B68002B01D1012376
:102C6C003FE07B6893F83D30DBB2002B06D17B68EC
:102C7C00002283F83C207868FEF78EF87B682422CB
:102C8C0083F83D207B681B68DA687B681B6822F43C
:102C9C000052DA60786800F029F87B681B681A69C2
:102CAC007B681B6822F490421A617B681B685A6926
:102CBC007B681B6822F02A025A617B681B68DA6801
:102CCC007B681B6842F40052DA607B6800221A644D
:102CDC007B68202283F83D207B68202283F83E20ED
:102CEC00002318460837BD4680BD000080B584B06F
:102CFC0000AF78607B681B681B6923F440517B68CC
:102D0C00DA687B681B680A431A617B689A687B687F
:102D1C001B691A437B685B691343BB607B681B6848
:102D2C00DB6823F4B05323F00C037A681268B9689B
:102D3C000B43D3607B681B685B6923F440717B6831
:102D4C009A697B681B680A435A617B681B682C4A2A
:102D5C00934203D1FEF7ECFFF86002E0FEF7D4FFDC
:102D6C00F860FA6813469B0013449A001A447B6877
:102D7C005B689B00B2FBF3F3224AA2FB03235B09C3
:102D8C001901FA6813469B0013449A001A447B6895
:102D9C005B689B00B2FBF3F21A4BA3FB02035B09CB
:102DAC00642000FB03F3D31A1B013233154AA2FB38
:102DBC0003235B0903F0F0031944FA6813469B00E4
:102DCC0013449A001A447B685B689B00B2FBF3F2D5
:102DDC000C4BA3FB02035B09642000FB03F3D31A27
:102DEC001B013233074AA2FB03235B0903F00F02DA
:102DFC007B681B680A449A6000BF1037BD4680BDD3
:102E0C00003801401F85EB5170B500260C4D0D4C60
:102E1C00641BA410A64209D100F022F800260A4D2A
:102E2C000A4C641BA410A64205D170BD55F8043B96
:102E3C0098470136EEE755F8043B98470136F2E720
:102E4C00AC2E0008AC2E0008AC2E0008B02E0008EA
:102E5C0003460244934200D1704703F8011BF9E783
:102E6C00F8B500BFF8BC08BC9E467047F8B500BF6B
:082E7C00F8BC08BC9E4670473B
:102E840002030405060708090A0B0C0D0E0F1010A7
:102E94000000000000000000010203040607080906
:082EA40000000000010203041C
:042EAC0031010008E8
:042EB0000D01000808
:102EB400010000000100000001000000010000000A
:102EC40001000000010000000100000001000000FA
:102ED40001000000010000000100000001000000EA
:102EE4002C0100002C0100002C0100000400000053
:102EF40088130000B80B0000D00700000A0000008F
:0C2F04000024F400100000000100000098
:0400000508000EA938
:00000001FF
